:1000000000000420BD020000E5020000E70200003D
:10001000E9020000EB020000ED0200000000000019
:10002000000000000000000000000000EF020000DF
:10003000F102000000000000F3020000F5020000E1
:10004000F7020000652D0000A5180000F70200006F
:10005000F7020000F7020000F7020000F7020000BC
:10006000F7020000F7020000F7020000F7020000AC
:10007000F7020000F7020000F7020000F70200009C
:10008000F7020000F7020000F7020000F70200008C
:1000900001310000F7020000F7020000F702000043
:1000A000F7020000F7020000F7020000F70200006C
:1000B000F7020000F702000000000000000000004E
:1000C000F7020000F7020000F7020000F70200004C
:1000D000F7020000F7020000F7020000F70200003C
:1000E000F7020000F7020000F70200000000000025
:1000F00000000000F702000000000000F70200000E
:1001000000000000000000000000000000000000EF
:1001100000000000000000000000000000000000DF
:1001200000000000000000000000000000000000CF
:1001300000000000000000000000000000000000BF
:1001400000000000000000000000000000000000AF
:10015000000000000000000000000000000000009F
:10016000000000000000000000000000000000008F
:10017000000000000000000000000000000000007F
:10018000000000000000000000000000000000006F
:10019000000000000000000000000000000000005F
:1001A000000000000000000000000000000000004F
:1001B000000000000000000000000000000000003F
:1001C000000000000000000000000000000000002F
:1001D000000000000000000000000000000000001F
:1001E000000000000000000000000000000000000F
:1001F00000000000000000000000000000000000FF
:1002000010B5054C237833B9044B13B10448AFF350
:1002100000800123237010BDC800002000000000F2
:10022000CC39000008B5034B1BB103490348AFF3B9
:10023000008008BD00000000CC000020CC39000088
:10024000A3F5803A704700BF174B002B08BF134B34
:100250009D46FFF7F5FF00218B460F461348144AD1
:10026000121A03F025FA0E4B002B00D098470D4BC5
:10027000002B00D098470020002104000D000D48FD
:10028000002802D00C48AFF3008003F0DFF9200013
:10029000290002F033F903F0C5F900BF000008009F
:1002A000000000000000000000000420C800002042
:1002B0002C0B002000000000000000000649074A47
:1002C000074B9B1A03DD043BC858D050FBDC02F0FF
:1002D000AFF9FFF7B9FF00001C3A00000000002052
:1002E000C8000020FEE7FEE7FEE7FEE7FEE7FEE7C8
:1002F000FEE7FEE7FEE7FEE7F0B595B0084600240E
:100300000E4617461D4601F0B7F91A9A0D9223467C
:10031000082205A93046CDE9095408978DF82C40EC
:100320000C9401F00DFADDE906219DF814308DF8EA
:100330001140CDE9021203F00302012A28D0022A5B
:1003400004D0304601F09CF915B0F0BDBDF8165050
:10035000C3F3C203C5F389158DF810300827082DA3
:100360002C4628BF08243B4622460EA9304601F001
:10037000E7F92D1B08AB02AA21460EA8274400F07E
:1003800009FC002DEBD1304601F07AF915B0F0BD33
:10039000BDF814100598C1F38312C3F3C203C0F370
:1003A0009525C1F383148DF810300EA930469200C4
:1003B000082301F0C5F908AB0093224602AB0EA951
:1003C000284600F071FB304601F05AF915B0F0BD37
:1003D000014B01221A70704728010020704700BFAE
:1003E00000B583B0044B0093044A4023FFF784FF19
:1003F00003B05DF804FB00BF01040000E80000202A
:1004000038B50F480F4D03780F4CEB5C4FF0000CE4
:1004100084F800C0D2B253B1043001F0C7FF58B91C
:100420000A4B1B7813B12378002BFCD038BD0C305D
:1004300001F0CEFC0028F3D000F058FCF0E700BF3C
:1004400000000020C806002028010020E400002051
:1004500010B51548154A0378D35C88B0C3B1043091
:1004600001F0ECFE124C0FCCEC46ACE80F0094E827
:100470000F008CE80F0014230B48009300226946FC
:1004800001F0D4F940B90B4B00221A7008B010BD2E
:100490000C3001F017FCE5E700F028FC054B0022CA
:1004A0001A7008B010BD00BF00000020C806002070
:1004B000EC360000E400002010B50F4C0FCC88B0E3
:1004C000EC46ACE80F0094E80F008CE80F00142312
:1004D0000A4A0B480093694601F0A8F920B9094B74
:1004E00001221A7008B010BD00F000FC054B01227B
:1004F0001A7008B010BD00BFEC360000D103000038
:1005000000000020E400002008B5FFF7D5FF0448F4
:10051000042100F045FA034B01225A7108BD00BFC7
:10052000F03900001400002070B5304D84B005F59E
:10053000836000F055FC05F2144000F051FCAB68FC
:10054000DAB2D11C05EB810015F821104C0710D54B
:1005500001F00404017801F00301012938D00229D7
:1005600003F1020602F1030126D005EB8100002C05
:10057000F0D105EB82015A1CC8680190D2B205EB9C
:10058000820200F003010129D66803F1020425D09C
:1005900002290FD1BDF80630C3F389130333360C9B
:1005A00004EB9304124800F027FC00B1AC60304625
:1005B00004B070BD0026F5E7438806EB9313DAB26A
:1005C000D11C05EB810015F8211001F00404CEE7E1
:1005D00002880233C2F383121344F0E7BDF80430FB
:1005E000C3F38313360C1C44DCE700BFFC0100207E
:1005F00010060020064B074810B500221A7000F0C4
:10060000EFFF044610B9044801F0CEF8204610BDB3
:10061000FC010020003A00004437000030B499B1DA
:100620000D490E4D491BC90813D00D4C002302E0A3
:10063000013399420AD034F823208242F8D1184677
:1006400055F8300030BC7047044DF9E7002030BC4D
:1006500070470846F6E700BFF0390000D0390000C7
:10066000C8000020094B013903EBC00003290BD857
:10067000DFE801F0040208060420704702207047FA
:10068000407970470079704700207047D0390000EA
:10069000704700BF2DE9F0438E4CD4E901239A4204
:1006A00085B060D00023C4F81834BFF34F8FA5681D
:1006B000EAB2D31C04EB830114F82330580718D591
:1006C00066680B7803F00303012B42D0022B03D1A1
:1006D0004B88023505EB9315EAB2D4F81804D31C05
:1006E00004EB830128B9AE4239D914F823305B07F3
:1006F000E7D404EB82026B1CDBB2D26804EB830309
:1007000002F00301DB680229CDE9012305F10206AD
:100710002DD0012900F08D80D4F810543DB12B6804
:1007200028469B689847EB681D68002DF7D16A48FA
:100730006A4B6B49C01AC008000440F0020000F088
:10074000D5F8D4E90130C01A18BF012005B0BDE8C2
:10075000F0830B880235C3F383131D44BCE7A66006
:1007600005B0BDE8F083002005B0BDE8F083BDF81A
:1007700006305C48C3F389184546502D28BF5025E4
:1007800005F1080165F38F13C1F30901ADF80630D7
:1007900000F028FF07460028BED000F06DFF0023C0
:1007A000082201A9384600F097FFF343DBB201337A
:1007B000B5EB830F4FEA830279D9F1B25FFA82F980
:1007C000033104EB810138460823A5EB090500F04D
:1007D00083FFEDB209F10803434903F0FC032A4605
:1007E000384600F079FF08F1030806EB9806D4F8C4
:1007F0001834002B69D1D4F8105465B1EB685A79DC
:1008000028463946002A5CD02B681B689847EB685D
:100810001D68002DF2D1384600F032FF002000F0B4
:10082000ABFAD4F8183403B9A660002000F0ACFA93
:1008300087E7BDF804202B48C2F38313062B28BF9B
:10084000062363F38912023303F00F018900ADF828
:10085000042000F0C7FE074600283FF45DAF00F01B
:100860000BFF0023082201A9384600F035FFBDF830
:10087000043013F4707FBAD06FF001094FF008080C
:10088000A9EB0509F1B203314346042204EB8101CF
:10089000384600F021FFBDF804300136C3F383135E
:1008A00009EB0602934208F10408EBD89FE7F1B286
:1008B00003312A4604EB81010823384600F00CFF7F
:1008C00091E71D68002D99D1A5E7384600F0D8FEC4
:1008D00037E700BFFC010020E8390000D0390000F4
:1008E0002C370000003A0000080200202DE9F041FA
:1008F000294C06460020884600F03EFAD4E90173F0
:1009000003F58073DB1B012B44D804F21C45012145
:10091000284600F04DFAFFF707FE0146284600F092
:1009200047FAD4E9012303F580739B1A012BEED912
:10093000D3B2033302320521002044F82310626051
:1009400000F022FA0021154800F028FA80F3100385
:100950007A1CF10001F03801D2B2FFB21B0441F061
:10096000010104EB8202033743EA164341EA88217E
:10097000D36044F8271023781BB9FFF789FEBDE840
:10098000F081FFF787FE0028F7D0FFF783FE0028ED
:10099000F7D1F2E73A46CBE7FC0100201806002029
:1009A00030B4154DD5F810140446002071B10B4633
:1009B00001E01B6853B1DB681A798242F9D101303A
:1009C0000A28F3D14FF0FF3030BC7047E36818714C
:1009D000D5F810344BB1DA68E36812681A60D5F8BC
:1009E0001034DB681C6030BC7047C5F81044E26806
:1009F000136030BC704700BFFC01002038B5084BC5
:100A0000D3F8104401251D704CB1E3685D71236873
:100A100020465B689847E3681C68002CF5D138BD18
:100A2000FC01002030B5C38885B004460D4623BBC9
:100A3000237A052B1FD0627A82B9144AA08852F813
:100A4000232003920021FFF7E9FD039A1049034692
:100A5000284605B0BDE8304000F040BA1946A088ED
:100A6000FFF700FE0B4B0C4953F82020284600F0FE
:100A700035FA237AE1E705B030BD08490091084A0C
:100A80000849284600F02AFAD2E700BF1C380000C7
:100A90007C370000F837000078370000703700001E
:100AA00050370000583700002DE9F04385B01D464F
:100AB0000C9C002394F80C90237380460E46174636
:100AC00021462846FFF7AEFF062F09D8DFE807F0DA
:100AD000042E343B444F1F004146204600F0FEF9EF
:100AE0002B7A052B05D06B7A5BB92749204600F09D
:100AF000F5F9204600F0E6F984F80C9005B0BDE861
:100B0000F083224A2249204600F0E8F9EDE77369B4
:100B1000039333690293F3680193B3680093D6E9B2
:100B200000234146204600F0D9F9D9E73268414612
:100B3000204600F0D3F9D3E7D6E90023414620460A
:100B400000F0CCF9CCE7B3680093D6E90023414626
:100B5000204600F0C3F9C3E7F3680193B36800933C
:100B6000D6E900234146204600F0B8F9B8E73369DA
:100B70000293F3680193B3680093D6E900234146DA
:100B8000204600F0ABF9ABE7883700007037000073
:100B900078370000082900D970472DE9F04F1D462D
:100BA00083B000241B7B2C730E4607462946104653
:100BB00090460193DFF8D0B0DFF8D0A0FFF732FF06
:100BC00005E03A5D013400F089F9082C09D0A6420D
:100BD00051462846F5D85946013400F07FF9082CD3
:100BE000F5D12449DFF8A8B0234CDFF8A8A02846A7
:100BF00000F074F94FF0000917E017F80910481CCD
:100C00007E294FF02E02C0B206D810F80A2012F04A
:100C1000970F14BF0A462E222146284609F10109E2
:100C200000F05CF9B9F1080F0AD04E45E5D85946F5
:100C3000284609F1010900F051F9B9F1080FF4D182
:100C400098F80830052B02D098F809305BB90B49A9
:100C5000284600F043F9284600F034F9019B2B7335
:100C600003B0BDE8F08F064A0649284600F036F981
:100C7000EDE700BF983700009C3700008837000080
:100C80007037000078370000943700008C37000080
:100C900084370000C6380000C10706D4830742BF6E
:100CA000114B0C22C3F8002770474FF0A0430322DA
:100CB00010B44FF40001C3F858274FF48004C3F870
:100CC0005C27C3F860274FF08072C3F80845C3F86B
:100CD0000815C3F80825820703D5034B0C22C3F877
:100CE00000275DF8044B70470003005000B585B045
:100CF0000346002101AA44F20100CDE9011103934A
:100D000000F004F805B05DF804FB00BF10B572B642
:100D1000FFF774FEFFF7BEFC0028FBD1104B114C0F
:100D20001149E41AE408240444F00100FFF7DEFD51
:100D30000E4BD3F8F030DB0700D500BE0C4944F071
:100D40000200FFF7D3FDBFF34F8F0849094BCA6874
:100D500002F4E0621343CB60BFF34F8F00BFFDE7A7
:100D6000D0390000E83900003038000000ED00E024
:100D70003C3800000400FA0572B6024A13680133D9
:100D800013607047B4060020034A1368013B1360E8
:100D900003B962B6704700BFB4060020034653E8AB
:100DA000000F0A4643E8002C9CF0000FF7D1704773
:100DB000034653E8002F02EB010043E8000C9CF0CF
:100DC000000FF6D1704700BF034653E8002FA2EB97
:100DD000010043E8000C9CF0000FF6D1704700BF03
:100DE0000346012253E8001F41EA020043E8000CD9
:100DF0009CF0000FF6D170470346002253E8000F25
:100E000000EA020143E8001C9CF0000FF6D1704795
:100E1000D0B110B4D0E90112521A0468D2B2531EF4
:100E20002160DBB252B101680A6803F1FF3C541C37
:100E30000C6013705FFA8CF3FF2BF4D10368002071
:100E400018715DF8044B70470E20704738B50446A2
:100E50000020FFF791FFD4E900311A688A4215D9C2
:100E6000511E19602168A36812F8012C208A0D68B0
:100E7000E4685B1B00FB02440A79DBB29A4200D2B1
:100E80000B710020FFF780FF204638BD00240020B2
:100E9000FFF77AFF204638BD38B5054600200C46DE
:100EA000FFF76AFF2A681368591C1160E9682A8AEB
:100EB000641AB4FBF2F41C70BDE838400020FFF760
:100EC00063BF00BF826842B110B504464369016840
:100ED000006998470023A36010BD70470EB400B5A9
:100EE00082B0039921B104AB01AA019300F0B6F8D6
:100EF00002B05DF804EB03B0704700BF2DE9F04F7E
:100F0000154683B0A942DDF830900D9A0F4606468B
:100F10009A46C0F09E800B464FF00108B3FBF5F3F4
:100F20009D4208F10108F9D9D04538BFD04612F0EA
:100F30000103019302D1B9F1000F67D1B268BAF190
:100F4000010F4FF0010406D90AF1FF3ABAF1010F7F
:100F500005FB04F4F8D8B7FBF4F39D4205D805FB74
:100F600004F4B7FBF4F39D42F9D9DFF8ECA007E0F5
:100F7000AC42B4FBF5F31AD3B2681C46B7FBF3F3EB
:100F80001AF803B0BBF10A0F04FB137728D03368BB
:100F9000511CB16003F802B0D6E901329A42E7D39E
:100FA0003046FFF78FFFB4FBF5F3AC42E4D2019B70
:100FB0009BB1B9F1000F10D02024C84509F1FF39C9
:100FC0000BD2B3683268591CB160D454D6E90132EF
:100FD0009A4214D2B9F1000FEFD103B0BDE8F08FFF
:100FE000511C3368B1604FF00D019954D6E90132BC
:100FF0009A42CCD33046FFF765FFB268C7E7304668
:10100000FFF760FFB9F1000FD7D1E6E793071AD4D5
:101010002024B268C84502F1010190D23368B16062
:101020009C54D6E901329A4209F1FF3903D2B9F151
:10103000000FEFD183E73046FFF744FFB268B9F104
:10104000000FE7D17BE7BAF1000F0CBF302420245A
:10105000DFE74FF0010867E74C380000002900F097
:101060005C822DE9F04FDFF870950D7885B006466B
:1010700090460C464FF00D0A0FE00A2DB36800F0C1
:101080008E803268591CB160D554D6E901329A423B
:1010900080F081802578002D69D00134002D66D044
:1010A000252DEAD10027234614F8012B2D2A6CD0D8
:1010B000302A6DD02B2A61D02A2A7FD0A2F13001AC
:1010C00009294FF000050BD805EB850502EB450516
:1010D00013F8012FA2F130010929A5F13005F3D948
:1010E0002E2A1C4675D0002301E014F8012F02F0CF
:1010F000FB016829F9D0252A00F08681583AD1B23F
:10110000202930D8202A2ED8DFE812F021002D0027
:101110002D002D002D002D002D002D002D002D0067
:101120002D00FE0079002D002D002D002D007900EE
:101130002D002D002D002D002D002D00BD002D00B7
:101140002D001A012D0016012D002D002100D8F8C8
:1011500000101022081DC8F8000009683046CDE9CB
:101160000057FFF7CBFE01342578002D95D1337B56
:10117000002B40F0438105B0BDE8F08F234614F802
:10118000012B2D2A47F0040792D147F001078AE787
:1011900047F0020787E73046FFF794FE7AE73268A8
:1011A000591CB16002F803A0D6E901239342FFF471
:1011B00068AF3046FFF786FEB36862E7D8F80020D4
:1011C000111DC8F8001015685A782E2A03F1010481
:1011D00089D16278A2F13003092B04F101044FF0A8
:1011E000000384D803EB830302EB430314F8012FBD
:1011F000A2F130010929A3F13003F3D977E7D8F838
:101200000020111DC8F80010D2F800B08BEAEB7274
:10121000A2EBEB72092A40F3DB81DFF8C0C30120A7
:1012200011466329ACFB02E200F101004FEAD20251
:10123000F6DC9842024638BF1A460292002D00F0B2
:101240001E81BBF1000FC0F22E817A0700F12B81C5
:10125000B80740F12A81002B40F02781BBF1000F35
:10126000C0F27D817A0700F18D8107F00302022A26
:1012700000F05D81CDE9005759460A223046FFF75C
:101280003DFE013470E7D8F800301A1DC8F8002080
:101290001F68B3683268581C3021B060D154D6E959
:1012A0000123934280F0FA80591C3268B1607821A2
:1012B000D154D6E901329A4280F0EB800F2F03D946
:1012C0003B461B090F2BFCD84FF0805506E00F2D35
:1012D0004FEA15137FF647AFB2681D46B7FBF5F32B
:1012E00019F803B0BBF10A0F05FB137777D0336809
:1012F000511CB16003F802B0D6E901329A42E6D33C
:101300003046FFF7DFFDE2E7D8F800301A1DC8F8D5
:1013100000201D78B3680A2D00F03A813268591C0C
:10132000B160D554D6E901329A42FFF41CAF304681
:10133000FFF7C8FD013417E7D8F800100A2209E7C3
:10134000D8F800301A1DC8F8002017F00107D3F8AC
:1013500000B064D1BBF1000F03D0584602F0B0F9E1
:101360000746BD4215D9202201E0BD4211D0B16827
:101370003368481CB0605A54D6E90130984205F1F0
:10138000FF35F2D33046FFF79DFDBD424FF02002FE
:10139000EDD19BF80050002D3FF4E5AE0A2DB0686A
:1013A0000FD03368421CB2601D54D6E90130984218
:1013B00080F0B4801BF8015F002D3FF4D4AE0A2DFD
:1013C000EFD13368421CB26003F800A0D6E90130C7
:1013D0009842E6D33046FFF775FDB068E1E7336821
:1013E000511CB16003F802A0D6E901329A42FFF421
:1013F0007EAF3046FFF766FDB26878E7304605B04D
:10140000BDE8F04FFFF75EBDB3683168581CB060AF
:10141000CA54D6E901329A4289D20134A4E69BF833
:101420000030002B00F0D680B0685F46CBF101029F
:101430000A2B02EB070B5ED0411CB16031680B54E4
:10144000D6E90130984248D217F8013F002BEFD17E
:101450005D457FF688AE202702E05D453FF483AE10
:10146000B2683368511CB1609F54D6E901329A4288
:1014700005F1FF35F1D33046FFF724FDEDE7B8075E
:1014800005D5002B3FF4EAAEF9073FF5E7AE00259E
:10149000E4E63046FFF716FDB2680FE73046FFF787
:1014A00011FDB36800E7013DD2E6F9073FF5D6AE7E
:1014B000002DECD020220299A942BFF4CFAEB16832
:1014C000481CB06030684254D6E90101814205F100
:1014D000FF356CD2002DEED1D9E730460292FFF7EE
:1014E000F1FC17F8013F002BB2D0029AB0680A2B2A
:1014F00002EB070BA0D1411CB160316801F800A0DC
:10150000D6E90110884297D33046CDE90232FFF781
:10151000D9FCDDE90232B0688EE770473046FFF74C
:10152000D1FC1BF8015F002D7FF438AF1BE6002BC8
:101530007FF4A0AE8DB1302202998D427FF69AAE33
:10154000B168481CB06030684254D6E9010181425C
:1015500005F1FF3535D2002DEED100258AE6B168C0
:101560003268481CB060CBF1000B2D205054D6E9F6
:1015700001219142FFF479AE30460393FFF7A2FCBC
:10158000039B72E6B1683268481CB0602B20EDE71F
:101590003268591CB16002F803A0D6E901239342D6
:1015A000FFF4BCAE3046FFF78DFCB368B6E63046BC
:1015B0000393FFF787FC039B2022002D7FF47BAF72
:1015C00065E730460393FFF77DFC039B3022C2E7BB
:1015D00001202EE69B463BE74C380000CDCCCCCC1E
:1015E000FFF716BC2DE9F041058A0331043D4E1981
:1015F0008046B6FBF5F6FFF729FCA0B3F6B24FF430
:101600008073013E04468380C580C0F800802BD0E3
:101610000346002508E06279AE4202F101026271E0
:101620003860C0F800801FD040461F46FFF70EFC10
:10163000013503460028EED16779791E17D022467E
:10164000013399421268FBD1D2F800805FB126685D
:10165000002501E034463668214640460135FFF753
:101660001BFCAF42F6D800242046BDE8F08120687C
:101670002146FFF711FCF6E701210430FFF798BB84
:101680002DE9F041012104460430FFF79DFB10F0E5
:10169000FF0301D0BDE8F0816779791E16D022469C
:1016A000013399421268FBD1D2F80080002FF1D0AB
:1016B0002668002501E0344636682146404601355B
:1016C000FFF7EAFBAF42F6D8BDE8F081206821467B
:1016D000BDE8F041FFF7E0BB2DE9F8438846C78835
:1016E000417907FB01F1043902EB030C1E1D614532
:1016F000154638BFCD1AB7420446B6FBF7F207FBD2
:10170000126002D8013A2468FCD13E1AAE4228BFCA
:101710002E469DB14FF000090430AD1B324608EB58
:101720000901204401F0B6FFAF42B14424683E46AF
:101730004FF0000028BF2E46002DEDD1BDE8F88304
:101740002DE9F8430446C788407907FB00F00438C8
:1017500002EB030C1E1D6045154638BFC51AB74283
:101760008846B6FBF7F107FB116202D801392468FD
:10177000FCD1BE1AAE4228BF2E469DB14FF00009E3
:10178000111DAD1B3246214408EB090001F082FF18
:10179000AF42B14424683E464FF0000228BF2E46B7
:1017A000002DEDD1BDE8F883826800239360826844
:1017B0001361826853618268D36082685360826873
:1017C0001360704730B50A4B0A4C53F8213054F877
:1017D0002110027885B0D0E901548DF80020C2684C
:1017E00001958DF8084003926846984705B030BDD2
:1017F000C0060020B806002030B50A4B0A4C53F84A
:10180000213054F82110027885B0D0E901548DF8C8
:101810000020C26801958DF80840039268469847F9
:1018200005B030BDC0060020B8060020F0B5184B4A
:10183000067843F82620174B0446487F98551546EE
:10184000154A8E46096942F8261022789F5CBEE848
:101850000F0089B0EC46ACE80F009EE80F008CE862
:101860000F0004964FB1002D0C4A694608BF2A4666
:10187000201D00F0D5FB09B0F0BD002D084A6946D7
:1018800008BF2A4604F10C0000F026F909B0F0BDAB
:10189000C0060020C8060020B8060020C5170000BA
:1018A000F9170000014B1B68184700BFCC06002049
:1018B00038B50C4B984213D100200D46FFF75CFA67
:1018C000094B1C7924B10020FFF75EFA112038BDC6
:1018D000012220461D601A71FFF756FA204638BDD6
:1018E000002038BD00200040CC060020034B984269
:1018F00003D1034B00221A601A7170470020004088
:10190000CC0600200000000010B5714AD2F8043364
:1019100099058AB068D5D2F82431002B64D0002311
:10192000C2F82431D2F8243101934FF40171694B8C
:101930000198C2F8081393F8291009B901215160E0
:10194000634902228DF81820D1F88024C1F8802440
:101950009FED5D7B9969D868CDE9081283ED067B20
:10196000D3E90012079006A89047594AD2F81C31D3
:10197000C3B1584B5869196A88426AD993F828103C
:1019800001F0FF00002964D1C2F81C01D2F81C113B
:10199000039103999C68186A196A205C01311962E5
:1019A000C2F81C054A4AD2F84431DBB10021494B48
:1019B000C2F84411D2F8440193F82910009000981D
:1019C00009B1012111609A6962B1D8685C6A00218D
:1019D0000122CDE9070499618DF8182006A8D3E902
:1019E000001290470AB010BD394AD2F804335B07A1
:1019F000BBD5D2F80831002BB7D0364B99690029F6
:101A00003ED00021C2F80811D2F8081104910499BF
:101A1000D868596AD2F8182542545A6A996901322D
:101A20005A625A6A8A42A0D1DA69002A31D09A6190
:101A30001A69D8685C6ADA60002101220894D961C9
:101A4000596207905C6819688DF8182006A8A047AD
:101A50008BE71F4A0020C2F81C01D2F81C21029219
:101A6000029A5A69002A9DD0D3E901215C698DF858
:101A70001800CDE907145861196806A8904791E746
:101A8000C2F80811D2F8080105900598D2F8182577
:101A9000C7E793F8292012B90D4A012151600C4A79
:101AA0004FF40171C2F80813D8685C6A0021012262
:101AB00099618DF81820D3E90012CDE9070406A832
:101AC000904752E7AFF300800000000000000000E4
:101AD00000200040D80600202DE9F041734E90F818
:101AE00004802C2303FB086382B093F82A30002B78
:101AF00040F09C8005460C4600686D491746FFF78C
:101B0000D7FE002840F08E802368591C19D01F2B67
:101B10004FF001028ABF67494FF0A04103F01F0355
:101B200002FA03F3C1F8083523681F2B86BF03F0C0
:101B30001F03604A4FF0A04203F5E073032142F80F
:101B4000231063685A1C0BD01F2B86BF03F01F03A2
:101B5000584A4FF0A04203F5E073002142F82310E9
:101B60002B68A269C3F82425227D637D13432A686C
:101B7000C2F86C35D4E900122B68C3F81425C3F8F9
:101B80000C15237D012B5CD02C2303FB08F3F218EA
:101B900057602269F25097B32A68237F0021C2F868
:101BA0001C11D2F81C210092009A2A68C2F8441134
:101BB000D2F844210192019A2A683F49C2F80413DD
:101BC0002A6842F3073100294FEA123232DB01F171
:101BD00060415B0101F56141DBB281F800332B68A4
:101BE00043F30732002A4FEA133109DB334C520921
:101BF000012301F01F0103FA01F144F822102B68C0
:101C00000422C3F800252C2303FB086601220023CD
:101C1000C6E9063386F82930736186F82A2002B0B7
:101C2000BDE8F081112002B0BDE8F081082002B0CB
:101C3000BDE8F081224902F00F025B01DBB28B5458
:101C4000CDE7A368591C0BD01F2B86BF03F01F03E1
:101C500018494FF0A04103F5E073002241F823201A
:101C6000E3685A1C1AD01F2B8ABF12494FF0A041BB
:101C700003F01F03012202FA03F3C1F80835E368F9
:101C80001F2B88BF03F01F0303F5E0738CBF0949C6
:101C90004FF0A041032241F82320E3682A68A1689D
:101CA000C2F80835C2F810156EE700BFD80600204C
:101CB00009190000000300508000020000E100E06C
:101CC00014ED00E0F8B5036807793D4C0022C3F835
:101CD00000252C2303FB07435B68C3B10368394A23
:101CE000C3F80823036843F30732002A4FEA13318D
:101CF0000EDB5209344D2032012301F01F0103FA9B
:101D000001F145F82210BFF34F8FBFF36F8F0368C7
:101D1000D3F80C65D3F81455D3F80825D3F810156B
:101D20004FF0FF3CC3F814C5C3F80CC50368664503
:101D3000C3F808C5C3F810C50CD01F2E86BF06F027
:101D40001F06224B4FF0A04306F5E0764FF0020C41
:101D500043F826C06E1C0BD01F2D86BF05F01F0553
:101D60001A4B4FF0A04305F5E075022643F82560B5
:101D70004D1C0BD01F2986BF01F01F01134B4FF0E4
:101D8000A04301F5E071022543F82150531C0BD00C
:101D90001F2A86BF02F01F020C4B4FF0A04302F532
:101DA000E072022143F822100068FFF79FFD2C2308
:101DB00003FB0744002384F82A306360F8BD00BFAA
:101DC000D80600208402020000E100E00003005079
:101DD0002DE9F041334C90F804E02C2303FB0E4333
:101DE0008446586984B000284ED15A6199601862BF
:101DF00083F82800DCF80020C2F81C01D2F81C216E
:101E00000292029ADCF8002001219160DCF80020A7
:101E10009D68C2F81C01D2F81C1101910199196A40
:101E20006E5C196A01311962C2F81C655A6812B1F8
:101E300004B0BDE8F0815E691A6ADCF800109642D1
:101E40001BD9074602E093F828200ABBD1F81C21D1
:101E5000002AF8D0C1F81C71D1F81C210392039A12
:101E60001A6A15F802801A6A01321A62C1F81C85D2
:101E70001A6A9642EAD8DCF80010D1F81C31002B1F
:101E8000FBD00123CB6004E0112004B0BDE8F08159
:101E90000F202C2303FB0E440023636104B0BDE834
:101EA000F08100BFD806002010B55B4BD3F8242189
:101EB0008AB0002A58D00022C3F82421D3F8241174
:101EC000049102228DF818200499544AD3F8801402
:101ED000C3F880149FED4E7B0991D3F83C45D06840
:101EE00082ED067BCDE90704D2E9001306A89847E6
:101EF000494BD3F8442152B10021484AC3F8441158
:101F0000D3F84401916903900398002961D1424BB1
:101F1000D3F8202162B10020C3F82001D3F820219A
:101F2000029201213D4A029CD9605169002943D1A6
:101F3000394BD3F85821AAB10020C3F85801D3F87F
:101F40005811364A01910199516959B1D3F84C455C
:101F50008DF81800D2E901315061CDE9071406A8C7
:101F6000116898470AB010BDD3F810110029BFD0EE
:101F7000C3F81021D3F81011284C05910599A169D7
:101F8000D3F83C058842B3D1E169002933D0C4E9D4
:101F90000612D3F8002222F02002C3F80022E268E1
:101FA0000792012122698DF8181008906368216852
:101FB000E26006A898479BE7D3F84C458DF81800D7
:101FC000D2E901315061CDE9071406A8116898479C
:101FD000AEE79FED0F7BD3F83C45D0684FF0010C86
:101FE000CDE9070482ED067BD2E900138DF818C015
:101FF00006A898478BE7E268A1610123CDE9072095
:102000008DF8183006A8D4E90013984770E700BF90
:102010000000000000000000002000400807002031
:102020002DE9F04307797F4E07EBC70306EB8303E7
:1020300087B093F82030002B40F0B58004460D4661
:10204000006879499046FFF733FC002840F0A780EC
:102050002B68591C4FEAC70919D01F2B4FF00102FA
:102060008ABF72494FF0A04103F01F0302FA03F345
:10207000C1F808352B681F2B86BF03F01F036B4A7E
:102080004FF0A04203F5E073032142F823106B6880
:102090005A1C0BD01F2B86BF03F01F03634A4FF05F
:1020A000A04203F5E073002142F823102368AA69D7
:1020B000C3F824252B7D6A7D1A432368C3F86C2559
:1020C000D5E900312268C2F80C35C2F814152B7D11
:1020D000012B73D009EB070206EB8203C3F80480DF
:1020E0002B6946F82230B8F1000F47D021682B7FCA
:1020F0000022C1F81021D1F8101101910199216835
:10210000C1F82021D1F82011029102992168C1F86B
:102110002421D1F82411039103992168C1F84421A5
:10212000D1F84411049104992168C1F85821D1F8DB
:1021300058210592059A22683D49C2F80413226885
:1021400042F3073100294FEA123230DB01F16041DE
:102150005B0101F56141DBB281F80033226842F393
:102160000733002B4FEA123109DB324D5B090122A4
:1021700001F01F0102FA01F145F8231022684F44D3
:1021800006EB87060121002386F820100821C2F8FB
:102190000015C6E90633736107B0BDE8F08311206E
:1021A00007B0BDE8F083082007B0BDE8F0832249FE
:1021B00002F00F025B01DBB28B54CFE7AB68591C16
:1021C0000BD01F2B86BF03F01F0318494FF0A0410F
:1021D00003F5E073002241F82320EB685A1C1AD063
:1021E0001F2B8ABF11494FF0A04103F01F030122AA
:1021F00002FA03F3C1F80835EB681F2B88BF03F020
:102200001F0303F5E0738CBF08494FF0A041032280
:1022100041F82320EB682268A968C2F80835C2F8A3
:10222000101557E708070020A91E00000003005002
:102230001003420000E100E014ED00E02DE9F04160
:102240000579564C05EBC50304EB830301465B6837
:10225000006882B0EE00C3B1514BC0F808330B6880
:1022600043F30732002A4FEA13330EDB5209DFF83B
:1022700038C12032012703F01F0307FA03F34CF89B
:102280002230BFF34F8FBFF36F8F731904EB8303BB
:102290009A69D0F8003223F02003C0F8003242B12E
:1022A0000023C0F84431D0F844310093009B01234F
:1022B00043600023C0F85831D0F858310193019B96
:1022C0007319012204EB8303C2609A69D0F8583174
:1022D000002BFBD01AB1D0F84431002BF6D00023EC
:1022E000C0F800350B684FF0FF38D3F80CE5D3F891
:1022F00014C5D3F80825D3F81075C3F80C85C3F8B6
:1023000014850B68C645C3F80885C3F810850CD042
:10231000BEF11F0F86BF0EF01F0E22494FF0A041E5
:102320000EF5E07E022341F82E30BCF1FF3F0CD0C9
:10233000BCF11F0F86BF0CF01F0C1A494FF0A041D3
:102340000CF5E07C022341F82C30791C0BD01F2FB8
:1023500086BF07F01F0713494FF0A04107F5E0774C
:10236000022341F82730531C0BD01F2A86BF02F0EE
:102370001F020C494FF0A04102F5E072022341F820
:102380002230FFF7B3FA354404EB8504002384F8C8
:102390002030636002B0BDE8F08100BF0807002074
:1023A000100342000003005000E100E001F0604C27
:1023B000BCF1005F30D170B590F804E0264C0EEB14
:1023C000CE0C04EB8C0C0346DCF8140082B04FEA10
:1023D000CE0500283BD1CCF81420CCF808101A68A0
:1023E000C2F82001D2F820210192019A1A68C2F89D
:1023F0005801D2F858210092009A1A68DCF814604B
:10240000C2F84415C2F848651A6801219160DCF8E9
:1024100004201AB102B070BD102070471A6800E0A5
:10242000C0B9D2F82011D2F858010029F8D088B9E3
:102430000121D1601B68D3F85821002AFBD005EB9D
:102440000E0304EB830300225A6102B070BD112019
:1024500002B070BD0F20F2E70807002010B5037826
:10246000012B08D0022B05D1064C204600F060FF5E
:102470000028FAD010BD01F049F8BDE8104000F086
:1024800093BF00BF2C07002070B5194B194C1A4E92
:1024900093E803008AB04FF0E7324FF0C23302AD49
:1024A00085E80300CDE900230FCC0DF1100CACE85A
:1024B0000F0094E803004FF4167E8CE8030004A894
:1024C000ADF81CE0059600F077FC08B10AB070BDCD
:1024D000684601F035F80028F8D101A801F050F85D
:1024E0000028F3D10821284601F06AF80AB070BD2F
:1024F00070380000943800005D2400002DE9F84396
:102500004FF0A0430322C3F820270120C3F824275B
:10251000C3F82827C3F82C27C3F83027C3F834277B
:10252000C3F83827C3F83C27FEF7B6FB002108465E
:10253000FEF760F800286AD1FDF7E6FF4FF0804211
:1025400000210123C2F800111360D2F80031002BE2
:10255000FBD0FFF799FF00285CD1DFF8CC802F4B30
:102560002F4E304DDFF8C490A8EB03084FEAD8088F
:102570004FEA08480027304648F0020845F00105B8
:10258000F77000F0F7FD78BBB37903F00702511E36
:1025900003294FF480004FF0A0412AD813F0060F12
:1025A000C1F80C052CD14FF0A0414FF40000C1F848
:1025B0000805033A032A4FF0A0424FF0807103F15F
:1025C000010394BFC2F80C15C2F80815B37141F2AB
:1025D00088344FF47A40A847013CFAD13046F7706E
:1025E00000F0C8FD0028CFD049464046FEF77EF9EE
:1025F000EDE713F0060FC1F80805D4D0052AD2D8AC
:102600004FF0A0414FF40000C1F80C05D1E7FEF7F0
:102610006DFB91E7FEF76AFB9FE700BFD039000032
:102620001C000020B0380000E83900007C380000B1
:1026300010B44FF08053D3F83021082A23D0844AB5
:10264000D2F8883043F47003C2F88830BFF34F8F5C
:10265000BFF36F8F4FF08053D3F83021082A00F07A
:10266000B3804FF01023D3F80022002AC0F2BF80BD
:10267000D3F80432002BC0F2BA80764B764A1A6047
:102680005DF8044B70474FF080410020C1F80C0109
:10269000724AC1F81001C1F83805D3F80414C2F821
:1026A0002015D3F80814C2F82415D3F80C14C2F876
:1026B0002815D3F81014C2F82C15D3F81414C2F846
:1026C0003015D3F81814C2F83415D3F81C14C2F816
:1026D0004015D3F82014C2F84415D3F82414C2F8D6
:1026E0004815D3F82814C2F84C15D3F82C14C2F8A6
:1026F0005015D3F83014C2F85415D3F83414C2F876
:102700006015D3F83814C2F86415D3F83C14C2F835
:102710006815D3F84014C2F86C15D3F83411D3F807
:102720004434C2F87035052942D84D4B5B5C1BB16F
:102730004C4B4D4AC3F88C264C4B5B5C73B14FF04D
:1027400080534B49D3F83021FB20C1F81805082AE3
:10275000D3F834117FF473AF052929D8454B5B5C5E
:10276000BBB14FF080524FF08040D2F85832D0F8D1
:10277000E41ED2F8304121F00F0103F00F030B43A8
:10278000C0F8E43E082CD2F834117FF458AF052984
:102790000ED8394B5B5C5BB14FF08053374AD3F8AE
:1027A00030314FF40071082BC2F840167FF447AF68
:1027B0004FF08043D3F80024D2077FF540AF6FF08D
:1027C0000102C3F800243AE7D3F83431052B08D9C5
:1027D0004FF010224FF08043D2F80822C3F858255A
:1027E0003FE7274AD35C002B3FF43BAFF0E7254A95
:1027F0000123C2F80435D2F80034002BFBD04FF08F
:10280000102312211F4AC3F80012D2F80034002B03
:10281000FBD04FF0102312211A4AC3F80412D2F849
:102820000034002BFBD000231649C2F80435D1F840
:102830000034002BFBD0BFF34F8F0549124BCA6801
:1028400002F4E0621343CB60BFF34F8F00BFFDE79C
:1028500000ED00E0440000200090D00300C00040E4
:10286000C03800000050004048810300C03800001C
:1028700000F00040C0380000C03800000090024066
:10288000B838000000E001400400FA05064A074B92
:10289000527C07490748C1F81405013A43EA02434C
:1028A000C1F81835704700BF480000202000000123
:1028B0000010004006000300074B08495B7C5A1ECD
:1028C00040EA024242EA002343F08073044AC1F81E
:1028D0001425C1F81835704748000020001000404A
:1028E0000001010038B5184B18481B681849C0F89A
:1028F00000328A89174C184B2468C3F84045823A45
:10290000C3F84425154C00220125DD60C3F84021A1
:10291000C3F844214FF4E053C4F804354FF4005396
:10292000C4F80835C0F80C21087810B90C4B1B68A6
:102930009847064A0B490C4B0C4CC2F804450C480E
:10294000086003221A7038BD5C00002000100040AF
:10295000D40700201C0B002000A0004000F0014024
:10296000280B0020240B0020FC0700206009002019
:10297000492B0000F8B5214CA36A072B2CD8204B1B
:102980001A78012A06460D4628D11E4F3A78202A89
:1029900022D8236A54F8230002701B49053000F046
:1029A00079FE226A194854F822104E707B78D0F8CC
:1029B000480588700132DB4303F00103072ACB701E
:1029C00084BF00232362A36A0D714FF0010003440A
:1029D00098BF2262A362F8BD0020F8BD5A782AB9D8
:1029E000236A084F54F823000270D6E7216ADA7C84
:1029F00054F82100034F0270CFE700BF0C080020FD
:102A0000D407002060090020620900200010004067
:102A1000F8B53E4B3E4F596A3E4A3F4E3D7853F81B
:102A20002110316001231360002D30D09D420FD161
:102A3000CB7813B13A7D002A4DD10879374C0A780A
:102A40002270B3FA83F35B0943EA4003637028E022
:102A5000324C334B4A78C3F82C254A78314D3248F2
:102A6000ED7C012101FA02F2C3F830250222C3F8FD
:102A70000855C3F80445C0F8802102600022C3F85D
:102A80000421C3F80821C3F810211960F8BD274BB1
:102A900008781B68214C98473368657019461B7984
:102AA000237011F8052BA01C00F0F4FD204B1C4AEC
:102AB0001B68F9891F4843F00803C2F8003211234C
:102AC000C2F804331C4B1D4A19601D4B10600222D2
:102AD00031681A70BDE70B79104C0A7822705B00E0
:102AE000637011F8052BA01C00F0D4FD104A0C4BAC
:102AF0001268C3F800221022C3F804230F4B114AB6
:102B00001A600F4B31681D70A3E700BFA4090020B5
:102B1000D4070020F8070020200B0020F80A00202E
:102B2000001000404800002000E100E0280B0020D9
:102B30005C000020E528000008080020240B00208D
:102B4000FC070020ED2C000070B5564A564B4FF4A0
:102B5000E051C2F80815D3F80C1111B1D3F80034C4
:102B600043BB524A1368591E1160002B65D0504B6D
:102B70004D4C1B684F4A504D43F00803C4F80032D7
:102B800012684E4B10781B6898474D48C4F804559E
:102B90004C4A4D4D05604D4B4249022010700122B8
:102BA0004FF400501A60C1F80405D3F8443103B162
:102BB000226070BD4549464E464D474C01204FF4BA
:102BC00000530861C2F808353368384A4349034363
:102BD00033601068EB89424A1B1A127801330B608C
:102BE000BAB1A36A002B42D03E4B0222C3F8802028
:102BF000BFF34F8FBFF36F8FD4E909320133072B37
:102C000002F1FF3288BF0023A2626362354B0222C9
:102C10001A602B781BB1344B1A78002A33D1A36A7F
:102C200043B32B7C012B25D02E4B4FF48012C3F8DD
:102C30000021BDE87040FFF7EBBE264A234CD28945
:102C400018492648012525614FF40054C1F808456C
:102C50002A441F4902600A681A4C224842F00202C4
:102C60000A6023704FF48013C0F8003170BD2B78D8
:102C7000002BD0D113491B4B00204FF48012087059
:102C8000C3F8002170BD084A5978D2F82C054908CC
:102C9000C0B2FFF76FFE0028C1D0336843F00403D1
:102CA0003360BCE700F0014000100040080800203D
:102CB0005C000020200B0020F80A0020280B0020D8
:102CC000240B0020FC070020E528000000A00040A5
:102CD000F4070020D4070020A4090020F8070020F2
:102CE000EC07002000E100E060090020184A1949C3
:102CF0001368097843F001031360174BB1B19A6A66
:102D0000EAB1164A0221C2F88010BFF34F8FBFF319
:102D10006F8FD3E909210132072A01F1FF3188BF02
:102D2000002299625A620D4A022111609B6A33B1F6
:102D30000A4B4FF48012C3F80021FFF769BE08491F
:102D4000064B00204FF480120870C3F80021704732
:102D5000F4070020EC070020A409002000E100E0B7
:102D6000FC070020124BD3F8002132B1D3F8042322
:102D7000D00744BF0022C3F800210D4BD3F80C212B
:102D800032B1D3F80423110744BF0022C3F80C2149
:102D9000074BD3F8102152B1D3F80423D20606D53D
:102DA000044A0021C3F81011136803B11847704793
:102DB00000100040240B0020002800F06B812DE95A
:102DC000F84FB54F3B7805463BB3B449B44BB54AD1
:102DD00000244FF47050C1F808051C70B24B146207
:102DE000C2E9094421462022B0489C62C3E9084454
:102DF0003C7000F05DFC08222146AD4800F058FC14
:102E0000AC4B4FF48012C3F88020BFF34F8FBFF359
:102E10006F8FA94B0322C3F80022A84CA84B6A6805
:102E20001A6029461822204600F034FCA54B9F4822
:102E300000212022196000F03BFC082200219C4860
:102E400000F036FC9C4A237AA17AC2F80C15C2F82D
:102E50001035042B40D8DFE803F0033B3F033B0071
:102E6000994A492313601368A1893E33994218D2C5
:102E700013683E330125A3812378B3B1012B18D108
:102E8000924A934B1360627A012A00F0F980022A79
:102E900026D0002A00F0EB80E07C98470720BDE8B0
:102EA000F88F23780125002BE8D1884A894B1360DD
:102EB000E9E7657A854B012D00F0E080022D0DD009
:102EC000002D00F0D380E07C1B6898470720E6E7E0
:102ED0007D4A30231360C6E70025CDE71B68002537
:102EE000754A7D494FF6FF70C2F83C05C2F83815A7
:102EF0000222DFF8C481C8F83425E07C9847002D11
:102F0000CCD0764E6749684A754DDFF8ECE1DFF8C2
:102F1000EC91DFF888C106F1250A4FF0E7334A3615
:102F2000C8F81C358E6025366E4BCE6025360E6196
:102F300025360020C1F804A0C3F80CA04E6106F1AC
:102F40004A0A06F1250B4FF04336C1E90800C2E9F1
:102F50000800886218719860187458619062C1F80E
:102F600018B0C1F81CA0C8F820655F4EC8F82465E9
:102F70005E4EC8F828656FF4817656440E6005F100
:102F80002501516005F14A01916005F16F01D160A1
:102F900005F19401116105F1B9011E6015605161DF
:102FA000AAF1B90605F1DE0105F203159161D561BB
:102FB0009E6125365E6225361E632536DE63C3F8C4
:102FC00048B0C3F854A01877186283F82800D86274
:102FD00083F83400986383F84000586483F84C0009
:102FE000186583F85800D8650423CEE90100CEE9BE
:102FF0000300CEE90500CEF80000CEF81C00C9F8A9
:10300000103540F20223C9F80805C9F80032384BE0
:10301000CCF860350433CCF86495CCF8683503F50A
:103020000F430C33CCF86C3503F59873CCF870353E
:10303000627CA37C2F4CCCF874451E4952015B0185
:1030400004F51144D2B2DBB23434CCF87845CCF874
:103050007C8581F8012381F814334FF480130B60D1
:103060000F4A012310703B70BDE8F88F1B681249AE
:103070000022C1F83C25C1F838253AE71B68002535
:103080000D4AFF21C2F83C1540F20711C2F838156D
:1030900001222EE70E207047EC07002000F00140CF
:1030A000FC070020A40900200C080020840900204F
:1030B0000008002000E100E000100040D4070020DC
:1030C000F0070020F40700201C0B0020280B002034
:1030D0008D280000B928000021100100D00900202F
:1030E0003808002054070020E743C323A363E313F9
:1030F0000011004010100040B407002000A0004064
:1031000030B5174B174A1B78126883B001922BB366
:10311000154B0222C3F88020BFF34F8FBFF36F8F90
:10312000124900200D6808601A60114C2368ABB189
:10313000E90703D58DF8000068469847AA0705D52A
:10314000012223688DF80020684698476B0705D553
:10315000022223688DF800206846984703B030BDEE
:10316000EC070020F807002000E100E0F407002051
:10317000F00700202DE9F843654B1B78002B59D050
:103180000446002800F0AD8003785A1E1F2A4ED84E
:10319000604D2A78002A47D05F4EB36A072B6FD85C
:1031A0006378072B66D85D4B0222C3F88020BFF3FB
:1031B0004F8FBFF36F8F6F78002F3ED0584F3B7902
:1031C000002B60D03B7C002B00F090803B7F002BDD
:1031D00000F08F8097F82830002B00F08C8097F853
:1031E0003430002B00F08A8097F84030002B00F03C
:1031F000888097F84C30002B00F0868097F8583084
:103200004FF00708002B3FD0444B02221A60687829
:103210002B7C184331D1434B1B7803F0FF043BB99F
:10322000FFF7F6FB204603E0EA7C9A42B4D209207D
:10323000BDE8F8830820BDE8F883336A252256F8F4
:103240002300214600F026FA60783749336A0A5C89
:10325000013202F003020A546278895CB26A0132D8
:10326000B26256F823200133072B98BF1F46117115
:103270003762C9E70720BDE8F8830020BDE8F8837E
:103280000420BDE8F883984608EB48084FEA88090F
:1032900007EB8808012388F80430002357F8090059
:1032A000C8F808302522214600F0F4F91E4A61785A
:1032B00057F80970535C1D48013303F0030353545E
:1032C0006378D35C3B71627850F822305BB11A4668
:1032D0009B68002BFBD1C2F80880B36A0133B3624C
:1032E00092E70E20A4E740F82280F6E74FF00108AD
:1032F000CAE79046C8E74FF00308C5E74FF0040857
:10330000C2E74FF00508BFE74FF00608BCE700BF73
:10331000EC070020D4070020A409002000E100E011
:1033200054070020FC07002000080020B4070020FC
:103330001A4B1B7873B378B310B5194CA36A3BB31F
:10334000184B0222C3F88020BFF34F8FBFF36F8F5B
:10335000636A54F823100A7802704B78437091F92D
:10336000023083700B790371CB78C370053105305F
:1033700000F090F9636A0133072B88BF0023636272
:10338000A36A013BA362074B02221A60002010BD12
:10339000052010BD082070470E207047EC07002064
:1033A0000C08002000E100E02DE9F041484C2378B2
:1033B000002B38D1474B9A6A002A30D0DFF8488179
:1033C000596A454A454F98F8006053F82110396012
:1033D00001231360002E3DD09E4227D0404D414B2B
:1033E0004A78C3F82C254A783F4C4048E47C0121B8
:1033F00001FA02F2C3F830250222C3F80845C3F8E7
:103400000455C0F8802102600022C3F80421C3F8EB
:103410000821C3F8102119601046BDE8F0814FF46F
:103420008070BDE8F0811120BDE8F081CB781BB140
:1034300098F81420002A31D10A79294DB3FA83F380
:103440005B0943EA42030A782A706B7011F8052B76
:10345000A81C0CE0264B08781B68214D98473B6858
:103460006E7019461B792B7011F8052BA81C00F003
:1034700011F9204B1B4A1B68B8F80E001E4943F097
:103480000803C2F8003211261C4BC2F804631C4A20
:103490001A600223086039682370A0E70B79104D89
:1034A0000A782A705B006B7011F8052BA81C00F0DD
:1034B000F1F8104B1A680B4B1021C3F800220F4A89
:1034C000C3F804130F4B39682670136087E700BFF9
:1034D000FC070020A4090020F8070020200B002092
:1034E000F80A0020001000404800002000E100E041
:1034F000280B00205C00002008080020240B00207E
:10350000E5280000ED2C0000D4070020094B1B78B3
:1035100073B1094A0221C2F88010BFF34F8FBFF385
:103520006F8F064B00209862C3E908001160704756
:1035300008207047EC07002000E100E0A40900200B
:1035400038B50C4B1B7883B9014680B10A4D042273
:10355000284603F0FF0400F09DF82B6893FAA3F3CC
:10356000064AC2F81C35204638BD112038BD0E2051
:1035700038BD00BFFC0700204800002000100040BC
:1035800038B50C4B1B7883B9014680B10A4D042233
:10359000A81803F0FF0400F07DF86B6893FAA3F31A
:1035A000064AC2F82035204638BD112038BD0E200D
:1035B00038BD00BFFC07002048000020001000407C
:1035C000154B1B7823BB28B3082970B50C461DD8B2
:1035D000124E0A46014606F1080003F0FF0500F00E
:1035E00059F8C4F10803FF221A413474B368B27465
:1035F00093FAA3F30A491ABAF368C1F8242593FA97
:10360000A3F31BBAC1F82835284670BD072070BD4A
:10361000112070470E207047FC0700204800002052
:103620000010004008B5074B044613B10021AFF36A
:103630000080054B1868836A03B19847204600F064
:1036400047F800BF00000000C839000070B50D4DFC
:103650000D4C641BA4100026A64209D10B4D0C4C46
:1036600000F038F8641BA4100026A64205D170BDF6
:1036700055F8043B98470136EEE755F8043B984768
:103680000136F2E7C0000020C0000020C00000208A
:10369000C40000200A44914200F1FF3300D170477A
:1036A00010B511F8014B03F8014F9142F9D110BD4B
:1036B00002440346934200D1704703F8011BF9E727
:1036C000034613F8012B002AFBD1181A0138704762
:1036D000FEE700BFF8B500BFF8BC08BC9E467047C7
:1036E000F8B500BFF8BC08BC9E467047FFFFFFFF5F
:1036F000FFFFFFFFFFFFFFFFFFFFFFFF00000000D6
:10370000000000000000D60106010000E1030000F7
:1037100051040000DD030000756172745F6C6F6717
:103720005F6261636B656E64000000004261636B01
:10373000656E647320666C757368656400000000D4
:10374000617070001C0600207F0000009C060020B5
:103750001B5B313B33316D0025734C6F6773206405
:10376000726F70706564202825642925730D0A0026
:103770001B5B306D00000000257300003C25733E8C
:103780002025733A200000000D0A00002025303269
:1037900078000000202020007C000000256300004D
:1037A0001B5B313B33306D001B5B313B33326D00B3
:1037B0001B5B313B33336D001B5B313B33346D009E
:1037C0001B5B313B33356D001B5B313B33366D008A
:1037D0001B5B313B33376D006572726F7200000006
:1037E0007761726E696E6700696E666F0000000037
:1037F000646562756700000070370000A037000044
:1038000050370000A8370000B0370000B83700007C
:10381000C0370000C8370000D037000000000000AB
:10382000D8370000E0370000E8370000F03700002C
:10383000466174616C206572726F720053797374A3
:10384000656D20726573657400000000303132339D
:103850003435363738394142434445465052530097
:10386000554152540000000055415254450000009B
:10387000E7C2C3C4C5C6C7C80000000053656E6474
:10388000696E67207061636B6574206661696C6541
:1038900064000000010000000000000001020000C0
:1038A000FA000300000102200000000000000000F8
:1038B0000338FDD87047000000000000010100003F
:1038C00001000000000000202020202020202020D7
:1038D00028282828282020202020202020202020C0
:1038E00020202020202020881010101010101010F0
:1038F0001010101010101004040404040404040434
:1039000004101010101010104141414141410101BB
:103910000101010101010101010101010101010197
:1039200001011010101010104242424242420202A5
:103930000202020202020202020202020202020267
:103940000202101010102000000000000000000013
:103950000000000000000000000000000000000067
:103960000000000000000000000000000000000057
:103970000000000000000000000000000000000047
:103980000000000000000000000000000000000037
:103990000000000000000000000000000000000027
:1039A0000000000000000000000000000000000017
:1039B0000000000000000000000000000000000007
:1039C0000000000000000000600000200000000077
:1039D0005C380000000000006038000000000000BB
:1039E00068380000000000004037000000000303BA
:1039F0000C37000000000000183700001400002001
:103A00002C010020F4010020FC01002034010020E2
:043A1000180000009A
:083A14002CC8FF7F0100000037
:103A1C0000000000002000400000000000200040DA
:103A2C000000000000000000FF0000000800000083
:103A3C000001000000110000000000000000000068
:103A4C00000000000000000000000000000000006A
:103A5C00000000000090D003E7E7E7E7C2C2C2C253
:103A6C00E7C2C3C4C5C6C7C80805FF0213010000DE
:103A7C00000000000000000000000000000000003A
:103A8C00000000000000000000000000000000002A
:103A9C00000000000000000000000000000000001A
:103AAC00000000000000000000000000000000000A
:103ABC0000000000000000000000000000000000FA
:103ACC0000000000000000000000000000000000EA
:083ADC002502000001020000B8
:04000003000002BD3A
:00000001FF
